{
  "_format": "hh-sol-artifact-1",
  "contractName": "Send",
  "sourceName": "contracts/Send.sol",
  "abi": [
    {
      "inputs": [
        {
          "internalType": "address payable",
          "name": "to",
          "type": "address"
        }
      ],
      "name": "send",
      "outputs": [],
      "stateMutability": "payable",
      "type": "function"
    }
  ],
  "bytecode": "0x608060405234801561001057600080fd5b5061014f806100206000396000f3fe60806040526004361061001e5760003560e01c80633e58c58c14610023575b600080fd5b61003d600480360381019061003891906100ec565b61003f565b005b8073ffffffffffffffffffffffffffffffffffffffff166108fc349081150290604051600060405180830381858888f19350505050158015610085573d6000803e3d6000fd5b5050565b600080fd5b600073ffffffffffffffffffffffffffffffffffffffff82169050919050565b60006100b98261008e565b9050919050565b6100c9816100ae565b81146100d457600080fd5b50565b6000813590506100e6816100c0565b92915050565b60006020828403121561010257610101610089565b5b6000610110848285016100d7565b9150509291505056fea26469706673582212209afb6aa4c2c17862e3b59faf3e58611c7ce06f931bc7eafcd6b0229db4928d3b64736f6c63430008180033",
  "linkReferences": {},
  "deployedLinkReferences": {}
}